:1004190050617373776F72643A003A52494748548E
:08042900003A57524F4E470004
:10018C0012045C7BFF7A0479197D017F011203BB99
:10019C001200038F1AE51A6046D3940A5033C3E554
:1001AC00199405E51894005020AE1BAF1C7C007D03
:1001BC000A1202768E1B8F1CE51A75F00A84E5F084
:1001CC00251CF51CE4351BF51B0519E519700205FA
:1001DC0018750C05AB1CAA1B7D017F021203FCE5F4
:1001EC001A640B7036E51CB4390DE51BB430087B72
:1001FC00FF7A04792380067BFF7A04792A7D097FB4
:10020C00011203BBE4F51BF51CF518F519750C056B
:10021C00AB1CAA1B7D017F021203FCE51A640C6067
:10022C000302019CF51BF51CF518F519750C05ABB3
:0D023C001CAA1B7D017F021203FC02019C25
:10044700EF1FAC0670011E4C600A7D027CEFDCFEDC
:04045700DDFC80EC5C
:01045B00227E
:06047000C2A58F80D2A797
:080476007F027EEFDEFEDFFCD9
:01047E00225B
:0A048B00C2A6120470C2A702047694
:1003DE00CFCDCFCECCCE1202887C007D0A12028801
:0403EE00ED2430FFCB
:0A03F200D2A6120470C2A70204761E
:10043100AE07BE0104ED148006BE0209ED243F445F
:0604410080FF12048B2273
:10045C007F3812048B7F0C12048B7F0612048B7F67
:04046C000102048BFA
:0A049500AC03120431AF040203F2BD
:0603BB008B088A09890A83
:1003C100120431E4FDAB08AA09A90A8D82758300E4
:0C03D100120249FF60061203F20D80E9E1
:0103DD0022FD
:0C0388007F0AEA24FFFDE434FFFC7E0045
:080394008E0D8F0E8C0F8D10F1
:10039C007F017E00E4FBEBC39510E50F6480F874DD
:0E03AC008098500AAC0DAD0E1202760B80E860
:0103BA002220
:0403FC008A0A8B0BD3
:10040000120431AA0CEAD39400400D120388AC0AFE
:08041000AD0B1203DE1A80EDB2
:0104180022C1
:1002DD00120431C3EA64809480400B7F2B1203F229
:1002ED008A168B17800E7F2D1203F2C3E49BF51730
:1002FD00E49AF516AA15EAD39400400D120388ACC2
:09030D0016AD171203DE1A80ED93
:0103160022C4
:040317008A1F8B208E
:10031B00120431AA21EAD3940040297F1012038AD8
:10032B00AC1FAD20CFCDCFCECCCE120288EF540F69
:10033B00FEC3940AEE5004243080022437FF1203CC
:04034B00F21A80D151
:01034F00228B
:040350008A248B254B
:10035400120431AA26EAD394004028EA24FFFDE4DB
:1003640034FFFC7F027E00120394AC24AD25CFCD74
:10037400CFCECCCE120288EF54012430FF1203F208
:030384001A80D20A
:010387002253
:10000300E4F5087590FFC2932097137F14FE120442
:10001300473097FD7F147E00120447750801209630
:10002300147F147E001204473096FD7F147E001265
:1000330004477508052095147F147E001204473089
:1000430095FD7F147E001204477508092094147FE0
:10005300147E001204473094FD7F147E001204477F
:1000630075080D7590FFC2922097147F147E0012BD
:1000730004473097FD7F147E001204477508022061
:1000830096147F147E001204473096FD7F147E0081
:100093001204477508062095147F147E0012044746
:1000A3003095FD7F147E0012044775080A209414CE
:1000B3007F147E001204473094FD7F147E001204E7
:1000C3004775080E7590FFC2912097147F147E0028
:1000D3001204473097FD7F147E001204477508030E
:1000E3002096147F147E001204473096FD7F147E01
:1000F300001204477508072095147F147E0012042C
:10010300473095FD7F147E0012044775080B209439
:10011300147F147E001204473094FD7F147E001276
:10012300044775080F7590FFC2902097147F147EC3
:10013300001204473097FD7F147E001204477508B0
:10014300042096147F147E001204473096FD7F141A
:100153007E001204477508082095147F147E001250
:1001630004473095FD7F147E0012044775080C2068
:1001730094147F147E001204473094FD7F147E0094
:08018300120447750810AF08D3
:01018B002251
:0300000002047F78
:0C047F00787FE4F6D8FD75812602018C20
:10024900BB010CE58229F582E5833AF583E022506A
:1002590006E92582F8E622BBFE06E92582F8E222B4
:0D026900E58229F582E5833AF583E49322CE
:10027600EF8DF0A4A8F0CF8CF0A428CE8DF0A42E9C
:02028600FE2256
:10028800BC000BBE0029EF8DF084FFADF022E4CC5A
:10029800F875F008EF2FFFEE33FEEC33FCEE9DEC23
:1002A800984005FCEE9DFE0FD5F0E9E4CEFD22ED69
:1002B800F8F5F0EE8420D21CFEADF075F008EF2FB3
:1002C800FFED33FD4007985006D5F0F222C398FDA4
:0502D8000FD5F0EA2241
:00000001FF
