:04087900021A00005F
:10080A001209851208A31206A98E1A8F1BD3E51B9B
:10081A009401E51A64809480500612052D1206A9E7
:10082A00E51B6402451A70DE1202FA1206A9E51BDC
:0B083A006403451A70D01208D580CB73
:05094400C285D28622ED
:05094900D285D28622D8
:05094E00D285C28622E3
:05095300C283D28422E2
:05095800D283D28422CD
:05095D00D283C28422D8
:05096200D2B5C2B6226F
:05096700D2B5D2B6225A
:05096C00C2B5D2B62265
:05097100D2B3C2B42264
:05097600D2B3D2B4224F
:05097B00C2B3D2B4225A
:1008A300758911758AA4758CFFC28DD28CD2A9D299
:0408B300AFD2B922E5
:03000B00020845A3
:10084500C0E0C0D0758AA4758CFF051DE51DC39455
:10085500644003751D00E51DC3951C500AD287D25F
:1008650082D2B7D2B28008C287C282C2B7C2B2D022
:04087500D0D0E032CD
:0F08B700751C0F120944120953120962020971CC
:0F08C600751C1E12094E12095D12096C02097B86
:0F08D500751C1E1209491209581209670209768B
:0F08E400751C1E12094412095812096202097686
:0F08F300751C1E12094912095312096702097177
:0F090200751C1912094E12095812096C02097658
:0F091100751C1B12094912095D12096702097B47
:0F092000751C1B12094412095D12096202097B42
:0F092F00751C1912094E12095312096C02097135
:10088E00EF1FAC0670011E4C600A7D027CEFDCFE91
:04089E00DDFC80EC11
:0108A2002233
:05000300007F05DFFE97
:0100080022D5
:10052D00758911E4F58BF58DD2AFD2A0120003C2FF
:10053D00A030A1FDD28E20A1FDC28EAF8DEFFEADFC
:10054D008B7C00E42DFDEC3EFCE41202327B967AAE
:10055D0043790B783D12000EE4FBFAF97840120155
:10056D001712026B8E148F15E4F58BF58DD2A21236
:10057D000003C2A230A3FDD28E20A3FDC28EAF8D8B
:10058D00EFFEAD8B7C00E42DFDEC3EFCE41202325F
:10059D007B967A43790B783D12000EE4FBFAF978DD
:1005AD004012011712026B8E168F17E4F58BF58D25
:1005BD00D2A4120003C2A430A5FDD28E20A5FDC287
:1005CD008EAF8DEFFEAD8B7C00E42DFDEC3EFCE49B
:1005DD001202327B967A43790B783D12000EE4FBC2
:1005ED00FAF9784012011712026B8E188F19E4F583
:1005FD008BF58DC3E515940FE5149400500A12097F
:10060D00207FFA7E0012088EC3E517940FE516942D
:10061D000050071209207F96807CAC18AD19E412AA
:10062D000232E4FBFA790878411201B460164014E5
:10063D001208E47F327E0012088E1208B77F827E88
:10064D000012088EAC18AD19E4120232E4FBFA79EF
:10065D000878411201B45043E5159428E51494002F
:10066D004025E51594F0E5149400501BAC18AD1918
:10067D00E4120232E4FBFA790878411201B4500712
:10068D001208F37F32800F1208F37F467E001208A6
:0C069D008E1208B77F827E0012088E22A9
:05098000D290D291228B
:05098500C290C29122A6
:04087D00021E000057
:1006A9002092331208D57F507E0012088E120980DD
:1006B9007F887E1312088E1209851209207F907E89
:1006C9000112088E1208D57F647E0012088E051F5C
:1006D900E51F7002051E20934A1208D57F647E002B
:1006E90012088E30920512092080F82092161208FD
:1006F900D57F507E0012088E1209807F887E1312E2
:10070900088E80E71209851209207F907E01120860
:100719008E1208D57F647E0012088E051FE51F70B2
:1007290002051E20944A1208D57F647E0012088EA5
:1007390030920512092F80F82092161208D57F50A1
:100749007E0012088E1209807F887E1312088E801F
:10075900E712098512092F7F907E0112088E12086F
:10076900D57F647E0012088E051FE51F7002051EE5
:05077900AE1EAF1F22BF
:0C088100020E0000021000000212000035
:05093E00007F05DFFE53
:010943002291
:1002FA00758911E4F58BF58DD2AFD2A012093EC2F1
:10030A00A030A1FDD28E20A1FDC28EAF8DEFFEAD31
:10031A008B7C00E42DFDEC3EFCE41202327B967AE3
:10032A0043790B783D12000EE4FBFAF9784012018A
:10033A001712026B8E088F09E4F58BF58DD2A21283
:10034A00093EC2A230A3FDD28E20A3FDC28EAF8D7C
:10035A00EFFEAD8B7C00E42DFDEC3EFCE412023294
:10036A007B967A43790B783D12000EE4FBFAF97812
:10037A004012011712026B8E0A8F0BE4F58BF58D72
:10038A00D2A412093EC2A430A5FDD28E20A5FDC278
:10039A008EAF8DEFFEAD8B7C00E42DFDEC3EFCE4D0
:1003AA001202327B967A43790B783D12000EE4FBF7
:1003BA00FAF9784012011712026B8E0C8F0DE4F5D0
:1003CA008BF58DC3E509944DE50894005045E50980
:1003DA009447E5089400403BE50D940BE50C940026
:1003EA005031E5114510702BC3E50D940AE50C94C4
:1003FA000050201208D57F507E0012088E1208E4A1
:10040A007FC67E0212088E751000751101750E00E6
:10041A00750F01E50F6401450E7069D3E513940762
:10042A00E5129400501C1208B77FDC7E0012088E79
:10043A001208D57F507E0012088E0513E51370024C
:10044A000512D3E5139407E512940040191208D552
:10045A007F507E0012088E1208E47FC67E021208C0
:10046A008EE4F512F513C3E5099410E508940040EB
:10047A000302052C1209207F907E0112088EE4F5F2
:10048A000EF50F22C3E509940FE5089400500A12ED
:10049A0009207F967E0012088EC3E50B940FE50AA9
:1004AA00940050071209207F968072AC0CAD0DE4BF
:1004BA00120232E4FBFA790878411201B46016405C
:1004CA00141208E47F327E0012088E1208B77F8267
:1004DA007E0012088EAC0CAD0DE4120232E4FBFA77
:1004EA00790878411201B45039E50D9414E50C9459
:1004FA0000401BE50D94F0E50C940050111208F32E
:10050A007F647E0012088E1208B77F21800F1208BE
:10051A00F37F467E0012088E1208B77F827E001291
:03052A00088E2216
:10000E00EC4D6011E8497017ED33EC3304600DE4EC
:10001E00FCFFFEFD22E933E8330470F80202D7122A
:10002E0002A258046009E4CC24815006285009022B
:10003E0002E12840030202DEC0E0EB4A7044B980C0
:10004E0006D0E0FB0202CDEF4E701CBD8008EBFF28
:10005E00EAFEE9FD80EBE98DF0A4FEE5F00200F783
:10006E00E9CDF9EAFEEBFFEF89F0A4FCE5F0CE89CD
:10007E00F0A42EFFE435F0CD89F0A42DFEE435F08A
:10008E008067EF4E7005BD80D780C3EF8BF0A4ACB8
:10009E00F0EE8BF0A42CFCE435F0F8EF8AF0A42CF3
:1000AE00E5F038FCE433CB8DF0A42CFCE5F03BF806
:1000BE00EE8AF0A42CFCE5F038F8E433CF89F0A4F6
:1000CE002CFCE5F038CF3400CE89F0A42FFFE5F0FC
:1000DE003EFEE433C98DF0A42EFEE5F039CD8AF054
:1000EE00A42FFFE5F03EFEE43DFD33D0E0FB5007CC
:1000FE000BBB000F0202E1EC2CFCEF33FFEE33FEE4
:06010E00ED33FD0202B911
:100114000202E1EC5D046005E8590470030202D7B1
:100124001202A2580460F6EC4860F2EC7004FDFE82
:10013400FF22C860DB2481C85009C39860025006BE
:100144000202DE9850CAF582E9294B4A7005AB8257
:100154000202CD75F0007C1A7880C3EF9BEE9AED15
:1001640099400DC3EF9BFFEE9AFEED99FDE842F036
:10017400DC23ACF0D0E0FFD0E0FED0E0FDAB822089
:10018400E7101BEB60BAEC2CFCEF33FFEE33FEED13
:1001940033FD0202B9E803F830E705C0F075F0005A
:1001A400EF2FFFEE33FEED33FD40B830E7C280AAF7
:1001B40074F8CC6480CCC86480C8F58204604FC3F2
:1001C400EB9FF5F0EA9E42F0E99D42F0E89C45F091
:1001D400603C501DE5825FFFE582D313CB5BCBF41B
:1001E4002B5582FB50280ABA002409B90020088044
:1001F4001DE5825BFBE582D313CF5FCFF4C3132FDE
:100204005582FF50090EBE00050DBD00010CC3EB65
:100214009FF5F0EA9E42F0E99D42F0E89C45F060CB
:0902240007CC4820E701B3EC22ED
:10022D0075F020800E75F010800575F0087D007E4C
:10023D00007F003392D530D5031202ECEC33401021
:10024D00EF33FFEE33FEED33FDEC33FCD5F0ED2255
:0E025D00E5F0247EA2D513CC92E7CDCEFF2291
:10026B00EDD2E7CD33EC3392D524814006E4FFFE8B
:10027B00FDFC22FCE4CFCECDCC24E0501174FF80EA
:10028B00EDC3CC13CCCD13CDCE13CECF13CF047087
:07029B00F030D5DE0202EC99
:1002A200E9D2E7C933E833F892D5EDD2E7CD33ECA2
:0702B20033FC5002B2D5221B
:1002B900EC30E7100FBF000C0EBE00080DBD0004A6
:1002C9000BEB6014A2D5EB13FCED92E7FD2274FF52
:1002D900FCFDFEFF22E480F8A2D574FF13FC7D80AB
:0302E900E480EFBF
:0300000002077E76
:0C077E00787FE4F6D8FD75811F0207C5E6
:0E02EC00C3E49FFFE49EFEE49DFDE49CFC2223
:10078A0002080AE493A3F8E493A34003F68001F273
:10079A0008DFF48029E493A3F85407240CC8C33370
:1007AA00C4540F4420C8834004F456800146F6DF3F
:1007BA00E4800B0102040810204080900879E47E4E
:1007CA00019360BCA3FF543F30E509541FFEE49334
:1007DA00A360010ECF54C025E060A840B8E493A3FB
:1007EA00FAE493A3F8E493A3C8C582C8CAC583CA26
:1007FA00F0A3C8C582C8CAC583CADFE9DEE780BEDE
:01088D00006A
:00000001FF
