:04090A00021A0000CD
:10089B00120A1612093412073A8E1A8F1BD3E51B54
:1008AB009401E51A64809480500612058112073A70
:1008BB00E51B6402451A70DE1202FA12073AE51BB9
:0B08CB006403451A70D012096680CB50
:0509D500C285D286225C
:0509DA00D285D2862247
:0509DF00D285C2862252
:0509E400C283D2842251
:0509E900D283D284223C
:0509EE00D283C2842247
:0509F300D2B5C2B622DE
:0509F800D2B5D2B622C9
:0509FD00C2B5D2B622D4
:050A0200D2B3C2B422D2
:050A0700D2B3D2B422BD
:050A0C00C2B3D2B422C8
:10093400758911758AA4758CFFC28DD28CD2A9D207
:04094400AFD2B92253
:03000B000208D612
:1008D600C0E0C0D0758AA4758CFF051DE51DC394C4
:1008E600644003751D00E51DC3951C500AD287D2CE
:1008F60082D2B7D2B28008C287C282C2B7C2B2D091
:04090600D0D0E0323B
:0F094800751C0F1209D51209E41209F3020A02F5
:0F095700751C1E1209DF1209EE1209FD020A0CAF
:0F096600751C1E1209DA1209E91209F8020A07B4
:0F097500751C1E1209D51209E91209F3020A07AF
:0F098400751C1E1209DA1209E41209F8020A02A0
:0F099300751C1E1209DF1209E91209FD020A077D
:0F09A200751C1E1209DA1209EE1209F8020A0C6E
:0F09B100751C1F1209D51209EE1209F3020A0C68
:0F09C000751C1F1209DF1209E41209FD020A0259
:10091F00EF1FAC0670011E4C600A7D027CEFDCFEFF
:04092F00DDFC80EC7F
:0109330022A1
:05000300007F05DFFE97
:0100080022D5
:10058100758911E4F58BF58DD2AFD2A0120003C2AB
:10059100A030A1FDD28E20A1FDC28EAF8DEFFEADA8
:1005A1008B7C00E42DFDEC3EFCE41202327B967A5A
:1005B10043790B783D12000EE4FBFAF97840120101
:1005C1001712026B8E148F15E4F58BF58DD2A212E2
:1005D1000003C2A230A3FDD28E20A3FDC28EAF8D37
:1005E100EFFEAD8B7C00E42DFDEC3EFCE41202320B
:1005F1007B967A43790B783D12000EE4FBFAF97889
:100601004012011712026B8E168F17E4F58BF58DD0
:10061100D2A4120003C2A430A5FDD28E20A5FDC232
:100621008EAF8DEFFEAD8B7C00E42DFDEC3EFCE446
:100631001202327B967A43790B783D12000EE4FB6D
:10064100FAF9784012011712026B8E188F19E4F52E
:100651008BF58DAC14AD15120232E4FBFA79787882
:10066100411201B46020401E1209667F507E0012C3
:10067100091F1209B17F787E0012091F1209667FD6
:10068100507E0012091FAC16AD17E4120232E4FBD2
:10069100FA797878411201B4601340111209667F2A
:1006A100507E0012091F1209B17F78807CAC18AD11
:1006B10019E4120232E4FBFA790878411201B460BC
:1006C10020401E1209757F327E0012091F1209484F
:1006D1007F827E0012091F1209667F507E00120977
:1006E1001FAC18AD19E4120232E4FBFA7908784123
:1006F1001201B45043E5199414E5189400401BE528
:100701001994F0E518940050111209847F647E0059
:1007110012091F1209487F21800F1209847F467E2A
:100721000012091F1209487F827E0012091F120957
:09073100667F507E0012091F22B0
:050A1100D290D29122F9
:050A1600C290C2912214
:04090E00021E0002C3
:10073A002092331209667F507E0012091F120A1195
:10074A007F887E1312091F120A161209B17F847E4E
:10075A000312091F1209667F647E0012091F051F12
:10076A00E51F7002051E20934A1209667F647E0007
:10077A0012091F3092051209B180F8209216120947
:10078A00667F507E0012091F120A117F887E13129B
:10079A00091F80E7120A161209B17F847E03120923
:1007AA001F1209667F647E0012091F051FE51F706C
:1007BA0002051E20944A1209667F647E0012091FF0
:1007CA003092051209C080F82092161209667F50ED
:1007DA007E0012091F120A117F887E1312091F80D8
:1007EA00E7120A161209C07F847E0312091F120932
:1007FA00667F647E0012091F051FE51F7002051E31
:05080A00AE1EAF1F222D
:0C091200020E00000210000002120000A3
:0509CF00007F05DFFEC2
:0109D4002200
:1002FA00758911E4F58BF58DD2AFD2A01209CFC260
:10030A00A030A1FDD28E20A1FDC28EAF8DEFFEAD31
:10031A008B7C00E42DFDEC3EFCE41202327B967AE3
:10032A0043790B783D12000EE4FBFAF9784012018A
:10033A001712026B8E088F09E4F58BF58DD2A21283
:10034A0009CFC2A230A3FDD28E20A3FDC28EAF8DEB
:10035A00EFFEAD8B7C00E42DFDEC3EFCE412023294
:10036A007B967A43790B783D12000EE4FBFAF97812
:10037A004012011712026B8E0A8F0BE4F58BF58D72
:10038A00D2A41209CFC2A430A5FDD28E20A5FDC2E7
:10039A008EAF8DEFFEAD8B7C00E42DFDEC3EFCE4D0
:1003AA001202327B967A43790B783D12000EE4FBF7
:1003BA00FAF9784012011712026B8E0C8F0DE4F5D0
:1003CA008BF58DC3E509944FE50894005050AC08AD
:1003DA00AD09E4120232E4FBFA798D78421201B4D3
:1003EA00503CC3E50D9414E50C94005031E51145D9
:1003FA0010702BC3E50D940AE50C940050201209E5
:10040A00667F967E0012091F1209757FC67E021248
:10041A00091F751000751101750E00750F01E50FA2
:10042A006401450E60030204B0D3E513940BE51290
:10043A009400501C1209487FDC7E0012091F120921
:10044A00667F507E0012091F0513E513700205121C
:10045A00D3E513940BE512940040231209667F96A4
:10046A007E0012091F1209757FC67E0212091F1229
:10047A0009667F967E0012091FE4F512F513C3E59B
:10048A0009941EE508940040030205801209667F5C
:10049A00507E0012091F1209B17F907E0112091FB6
:1004AA00E4F50EF50F22C3E509940FE50894005010
:1004BA001E1209667F507E0012091F1209B17F962B
:1004CA007E0012091F1209667F507E0012091FC39F
:1004DA00E50B940FE50A940050111209667F507ECD
:1004EA000012091F1209B17F96807CAC0CAD0DE495
:1004FA00120232E4FBFA790878411201B460204012
:10050A001E1209757F327E0012091F1209487F8266
:10051A007E0012091F1209667F507E0012091FAC65
:10052A000CAD0DE4120232E4FBFA790878411201AB
:10053A00B45043E50D9414E50C9400401BE50D946A
:10054A00F0E50C940050111209847F647E001209B0
:10055A001F1209487F21800F1209847F467E0012EC
:10056A00091F1209487F827E0012091F1209667F3D
:07057A00507E0012091F2250
:10000E00EC4D6011E8497017ED33EC3304600DE4EC
:10001E00FCFFFEFD22E933E8330470F80202D7122A
:10002E0002A258046009E4CC24815006285009022B
:10003E0002E12840030202DEC0E0EB4A7044B980C0
:10004E0006D0E0FB0202CDEF4E701CBD8008EBFF28
:10005E00EAFEE9FD80EBE98DF0A4FEE5F00200F783
:10006E00E9CDF9EAFEEBFFEF89F0A4FCE5F0CE89CD
:10007E00F0A42EFFE435F0CD89F0A42DFEE435F08A
:10008E008067EF4E7005BD80D780C3EF8BF0A4ACB8
:10009E00F0EE8BF0A42CFCE435F0F8EF8AF0A42CF3
:1000AE00E5F038FCE433CB8DF0A42CFCE5F03BF806
:1000BE00EE8AF0A42CFCE5F038F8E433CF89F0A4F6
:1000CE002CFCE5F038CF3400CE89F0A42FFFE5F0FC
:1000DE003EFEE433C98DF0A42EFEE5F039CD8AF054
:1000EE00A42FFFE5F03EFEE43DFD33D0E0FB5007CC
:1000FE000BBB000F0202E1EC2CFCEF33FFEE33FEE4
:06010E00ED33FD0202B911
:100114000202E1EC5D046005E8590470030202D7B1
:100124001202A2580460F6EC4860F2EC7004FDFE82
:10013400FF22C860DB2481C85009C39860025006BE
:100144000202DE9850CAF582E9294B4A7005AB8257
:100154000202CD75F0007C1A7880C3EF9BEE9AED15
:1001640099400DC3EF9BFFEE9AFEED99FDE842F036
:10017400DC23ACF0D0E0FFD0E0FED0E0FDAB822089
:10018400E7101BEB60BAEC2CFCEF33FFEE33FEED13
:1001940033FD0202B9E803F830E705C0F075F0005A
:1001A400EF2FFFEE33FEED33FD40B830E7C280AAF7
:1001B40074F8CC6480CCC86480C8F58204604FC3F2
:1001C400EB9FF5F0EA9E42F0E99D42F0E89C45F091
:1001D400603C501DE5825FFFE582D313CB5BCBF41B
:1001E4002B5582FB50280ABA002409B90020088044
:1001F4001DE5825BFBE582D313CF5FCFF4C3132FDE
:100204005582FF50090EBE00050DBD00010CC3EB65
:100214009FF5F0EA9E42F0E99D42F0E89C45F060CB
:0902240007CC4820E701B3EC22ED
:10022D0075F020800E75F010800575F0087D007E4C
:10023D00007F003392D530D5031202ECEC33401021
:10024D00EF33FFEE33FEED33FDEC33FCD5F0ED2255
:0E025D00E5F0247EA2D513CC92E7CDCEFF2291
:10026B00EDD2E7CD33EC3392D524814006E4FFFE8B
:10027B00FDFC22FCE4CFCECDCC24E0501174FF80EA
:10028B00EDC3CC13CCCD13CDCE13CECF13CF047087
:07029B00F030D5DE0202EC99
:1002A200E9D2E7C933E833F892D5EDD2E7CD33ECA2
:0702B20033FC5002B2D5221B
:1002B900EC30E7100FBF000C0EBE00080DBD0004A6
:1002C9000BEB6014A2D5EB13FCED92E7FD2274FF52
:1002D900FCFDFEFF22E480F8A2D574FF13FC7D80AB
:0302E900E480EFBF
:0300000002080FE4
:0C080F00787FE4F6D8FD75811F020856C2
:0E02EC00C3E49FFFE49EFEE49DFDE49CFC2223
:10081B0002089BE493A3F8E493A34003F68001F250
:10082B0008DFF48029E493A3F85407240CC8C333DE
:10083B00C4540F4420C8834004F456800146F6DFAD
:10084B00E4800B010204081020408090090AE47E2A
:10085B00019360BCA3FF543F30E509541FFEE493A2
:10086B00A360010ECF54C025E060A840B8E493A369
:10087B00FAE493A3F8E493A3C8C582C8CAC583CA94
:10088B00F0A3C8C582C8CAC583CADFE9DEE780BE4C
:01091E0000D8
:00000001FF
