:10031B004D4F444531004D4F4445320053454C45FC
:10032B004354002020202020200020202020004C9F
:09033B00454431004245455000E3
:100003001203EF7BFF7A03791B7D017F0112034407
:100013007BFF7A0379217D010200EE1201DC8F223E
:10002300E5226401703E7BFF7A0379277D0B7F0114
:100033001203447BFF7A03792E7D0B7F0212034464
:100043007BFF7A0379357D077F011203447BFF7AB7
:100053000379357D077F021203447523007524015C
:10006300D2A080B7E5226402703F7BFF7A03793523
:100073007D077F011203447BFF7A0379357D077F78
:10008300021203447BFF7A0379277D0B7F0212035D
:10009300447BFF7A03792E7D0B7F01120344752382
:1000A30000752402D2A002001EE52264036003024D
:1000B300001EE524640145237039C2A07BFF7A0347
:1000C300792E7D0B7F021203447BFF7A03792E7D09
:1000D3000B7F011203447BFF7A03793A7D077F018B
:1000E3001203447BFF7A0379357D077F02120344B1
:1000F30002001EE52464024523600302001ED2A011
:100103007BFF7A03792E7D0B7F021203447BFF7AF8
:1001130003792E7D0B7F011203447BFF7A03793F22
:100123007D077F021203447BFF7A0379357D077FC6
:10013300011203447F2C7E011203DA7F2C7E01120D
:05014300036702001E2D
:05043200007FF7DFFE72
:0104370022A2
:04036700AD07AC062C
:10036B00E4FBFAED25E0FFEC33FEC3EB9FEA9E5076
:0D037B000CB2A51204320BBB00010A80E693
:010388002252
:1003DA00EF1FAC0670011E4C600A7D027CEFDCFE4A
:0403EA00DDFC80ECCA
:0103EE0022EC
:1001DC00E4F52520B1137F1EFE1203DA30B1FD7F4A
:1001EC00147E001203DA75250120B0147F1E7E00E8
:1001FC001203DA30B0FD7F147E001203DA7525028B
:10020C0020B2147F1E7E001203DA30B2FD7F147E02
:10021C00001203DA75250320B3147F1E7E0012032F
:10022C00DA30B3FD7F147E001203DA752504AF2596
:01023C00229F
:06040300C2A58F80D2A704
:080409007F027EEFDEFEDFFC46
:0104110022C8
:0A041E00C2A6120403C2A7020409DB
:10038900CFCDCFCECCCE1201877C007D0A1201875A
:04039900ED2430FF20
:0A039D00D2A6120403C2A70204094D
:1003C400AE07BE0104ED148006BE0209ED243F44CD
:0603D40080FF12041E224E
:1003EF007F3812041E7F0C12041E7F0612041E7F1C
:0403FF000102041ED5
:0A042800AC031203C4AF0402039DED
:060344008B258A268927A3
:10034A001203C4E4FDAB25AA26A9278D8275830072
:0C035A00120148FF600612039D0D80E9AF
:010366002274
:0C02E8007F0AEA24FFFDE434FFFC7E00E6
:0802F4008E1E8F1F8C208D214E
:1002FC007F017E00E4FBEBC39521E5206480F8745C
:0E030C008098500AAC1EAD1F1201750B80E8E0
:01031A0022C0
:0403A7008A118B121A
:1003AB001203C4AA13EAD39400400D1202E8AC1155
:0803BB00AD121203891A80ED56
:0103C3002217
:10023D001203C4C3EA64809480400B7F2B12039D8C
:10024D008A0D8B0E800E7F2D12039DC3E49BF50E40
:10025D00E49AF50DAA0CEAD39400400D1202E8AC15
:09026D000DAD0E1203891A80ED9B
:010276002265
:040277008A168B1741
:10027B001203C4AA18EAD3940040297F101202EA91
:10028B00AC16AD17CFCDCFCECCCE120187EF540F1E
:10029B00FEC3940AEE5004243080022437FF12036D
:0402AB009D1A80D147
:0102AF00222C
:0402B0008A1B8B1CFE
:1002B4001203C4AA1DEAD394004028EA24FFFDE4F3
:1002C40034FFFC7F027E001202F4AC1BAD1CCFCDC8
:1002D400CFCECCCE120187EF54012430FF12039D00
:0302E4001A80D2AB
:0102E70022F4
:03000000020412E5
:0C041200787FE4F6D8FD75812702000316
:10014800BB010CE58229F582E5833AF583E022506C
:1001580006E92582F8E622BBFE06E92582F8E222B6
:0D016800E58229F582E5833AF583E49322D0
:10017500EF8DF0A4A8F0CF8CF0A428CE8DF0A42E9E
:02018500FE2258
:10018700BC000BBE0029EF8DF084FFADF022E4CC5C
:10019700F875F008EF2FFFEE33FEEC33FCEE9DEC25
:1001A700984005FCEE9DFE0FD5F0E9E4CEFD22ED6B
:1001B700F8F5F0EE8420D21CFEADF075F008EF2FB5
:1001C700FFED33FD4007985006D5F0F222C398FDA6
:0501D7000FD5F0EA2243
:00000001FF
