:1000C800203008019191FF91910128494EFC4F4938
:1000D8000A01A650045EF55F140116F1DFD5F51587
:1000E80001102040BF40201000F191919F00FF892E
:0300F800955522F9
:10008F00120160E4F538E53825392408F8E6FD7CDF
:10009F0000AF381201290538E538C3940840E70549
:1000AF003AE53AD3940F40DBE4F53A0539E539D315
:0900BF00942840CFE4F53980CA11
:10014B00EF1FAC0670011E4C600A7D027CEFDCFEDB
:04015B00DDFC80EC5B
:01015F00227D
:0200FC00AD074E
:1000FE00E4FB74807E00A803088006CEA2E713CE30
:10010E0013D8F8FFEDF582EF558224FF92B4D2B6E4
:0A011E00C2B60BBB08DCD2B5C2B5B7
:0101280022B4
:05016000C2B6C2B52289
:10012900AA07AF051200FCAF027480A80708800275
:10013900C313D8FCF4F5807F017E0012014B758052
:02014900FF2293
:03000000020003F8
:0C000300787FE4F6D8FD75813A02004ACF
:10000F0002008FE493A3F8E493A34003F68001F278
:10001F0008DFF48029E493A3F85407240CC8C333F2
:10002F00C4540F4420C8834004F456800146F6DFC1
:10003F00E4800B01020408102040809000C8E47E89
:10004F00019360BCA3FF543F30E509541FFEE493B6
:10005F00A360010ECF54C025E060A840B8E493A37D
:10006F00FAE493A3F8E493A3C8C582C8CAC583CAA8
:10007F00F0A3C8C582C8CAC583CADFE9DEE780BE60
:0100FB000004
:00000001FF
