:10000E00000000040000000400000004000D0004C5
:10001E00000D0002000D000200110004001100048A
:10002E00000F0002000D0004000A00040008000288
:10003E00000A0002000D0002000F0004000D000473
:10004E00001100020011000300000002000D000666
:10005E00000000040000000400110002001400065D
:10006E000019000800000004001200020011000632
:10007E00000D00080000000400110002001400062C
:10008E0000190006001900040012000200160006F6
:10009E00001400060000000400000004000000042C
:1000AE0000110002001400060019000800000004F0
:1000BE000012000200110006000D000800000004EE
:1000CE0000110002001400040014000400140002C9
:1000DE0000140002001100020016000200140006B7
:1000EE0000000010001100020014000600190008A4
:1000FE00000000040012000200110006000D0008AE
:10010E000000000400110002001400060019000691
:10011E000019000400180002001600060014000862
:10012E00000000080011000200140006001900086B
:10013E00000000040012000200110006000D00086D
:10014E0000000004000F0003000D0001000F00036B
:10015E00000D0001000F0004001100040012000445
:10016E000000000400110004000F0004001100083C
:10017E000014000400190004001200040011000411
:10018E00000F0004000D000400110008001400040C
:10019E0000190004001800040018000400160004E2
:1001AE0000140004001100080014000400190004DB
:1001BE000012000E00110004000F000E00110004CA
:1001CE000012000800110004000F0004000D0020B2
:0201DE0000FF20
:1002C200204A0A0000F8FAF957F9BFFA1CFA79FA3B
:1002D200CBFB1DFB68FBAFFBF4FC33FC74FCB2FCF4
:1002E200DDFD10FD40FD6DFD98FDC0FDE4FE0AFE42
:1002F20022FE4CFE5BFE74FEA1FEBAFED2FEE9FEB9
:0D030200FEFF12FF25FF37FF48FF58FF6781
:10026C0012034475F002E508A4240EF582E5F0347F
:10027C0000F583E493FE740193FFF44E60348F0910
:10028C00050875F002E508A4240EF582E5F03400AB
:10029C00F583E493FE740193FF7C007D4B12037095
:1002AC0012035B0508C28C7F967E0012035BD28C16
:0602BC0080B1C28C80FE3F
:03000B00020310DD
:10031000C0E0C0D075D000C000C006E50925E024CB
:100320000AF8E6FE08E64E6012E50925E0240AF820
:10033000E6FE08E6F58AEEF58CB2A5D006D000D030
:04034000D0D0E03207
:10035B00EF1FAC0670011E4C600A7D027CEFDCFEC9
:04036B00DDFC80EC49
:01036F00226B
:100344005389F0438901758A18758CFCC28DD28C4F
:07035400D2A9D2AFC2B92209
:030000000201E01A
:0C01E000787FE4F6D8FD758153020227F9
:10037000EF8DF0A4A8F0CF8CF0A428CE8DF0A42EA1
:02038000FE225B
:1001EC0002026CE493A3F8E493A34003F68001F2BB
:1001FC0008DFF48029E493A3F85407240CC8C33314
:10020C00C4540F4420C8834004F456800146F6DFE2
:10021C00E4800B01020408102040809002C2E47EAE
:10022C00019360BCA3FF543F30E509541FFEE493D7
:10023C00A360010ECF54C025E060A840B8E493A39E
:10024C00FAE493A3F8E493A3C8C582C8CAC583CAC9
:10025C00F0A3C8C582C8CAC583CADFE9DEE780BE81
:01030F0000ED
:00000001FF
