:0408FB00021A0000DD
:10087800120A071209251207178E1A8F1BD3E51BB8
:100888009401E51A648094805006120573120717C4
:10089800E51B6402451A70DE1202FA120717E51BFF
:1008A8006403451A70D01209A27F907E01120910C4
:0F08B8001209397F4A7E0112091012057380B7A9
:0509C600C285D286226B
:0509CB00D285D2862256
:0509D000D285C2862261
:0509D500C283D2842260
:0509DA00D283D284224B
:0509DF00D283C2842256
:0509E400D2B5C2B622ED
:0509E900D2B5D2B622D8
:0509EE00C2B5D2B622E3
:0509F300D2B3C2B422E2
:0509F800D2B3D2B422CD
:0509FD00C2B3D2B422D8
:10092500758911758AA4758CFFC28DD28CD2A9D216
:04093500AFD2B92262
:03000B000208C721
:1008C700C0E0C0D0758AA4758CFF051DE51DC394D3
:1008D700644003751D00E51DC3951C500AD287D2DD
:1008E70082D2B7D2B28008C287C282C2B7C2B2D0A0
:0408F700D0D0E0324B
:0F093900751C0F1209C61209D51209E40209F341
:0F094800751C1E1209D01209DF1209EE0209FDFB
:0F095700751C1E1209CB1209DA1209E90209F800
:0F096600751C1E1209C61209DA1209E40209F8FB
:0F097500751C1E1209CB1209D51209E90209F3EC
:0F098400751C1E1209D01209DA1209EE0209F8C9
:0F099300751C1E1209CB1209DF1209E90209FDBA
:0F09A200751C1F1209C61209DF1209E40209FDB4
:0F09B100751C1E1209D01209D51209EE0209F3A6
:10091000EF1FAC0670011E4C600A7D027CEFDCFE0E
:04092000DDFC80EC8E
:0109240022B0
:05000300007F05DFFE97
:0100080022D5
:10057300758911E4F58BF58DD2AFD2A0120003C2B9
:10058300A030A1FDD28E20A1FDC28EAF8DEFFEADB6
:100593008B7C00E42DFDEC3EFCE41202327B967A68
:1005A30043790B783D12000EE4FBFAF9784012010F
:1005B3001712026B8E148F15E4F58BF58DD2A212F0
:1005C3000003C2A230A3FDD28E20A3FDC28EAF8D45
:1005D300EFFEAD8B7C00E42DFDEC3EFCE412023219
:1005E3007B967A43790B783D12000EE4FBFAF97897
:1005F3004012011712026B8E168F17E4F58BF58DDF
:10060300D2A4120003C2A430A5FDD28E20A5FDC240
:100613008EAF8DEFFEAD8B7C00E42DFDEC3EFCE454
:100623001202327B967A43790B783D12000EE4FB7B
:10063300FAF9784012011712026B8E188F19E4F53C
:100643008BF58DC3E515940FE5149400501E120924
:10065300577F507E001209101209A27F6E7E00128E
:1006630009101209577F507E00120910C3E5179431
:100673000FE516940050111209577F507E0012099E
:10068300101209A27F6E807CAC18AD19E4120232FD
:10069300E4FBFA790878411201B46020401E120984
:1006A300667F3C7E001209101209397F787E0012A2
:1006B30009101209577F507E00120910AC18AD19AA
:1006C300E4120232E4FBFA790878411201B4504390
:1006D300E5199414E5189400401BE51994F0E51806
:1006E300940050111209757F5D7E001209101209E2
:1006F300397F31800F1209757F3C7E001209101279
:1007030009397F787E001209101209577F507E0045
:040713001209102295
:050A0200D290D2912208
:050A0700C290C2912223
:0408FF00021E0000D5
:100717002092331209577F507E00120910120A02E5
:100727007F887E13120910120A071209A27F2C7EF6
:10073700011209101209577F647E00120910051F64
:10074700E51F7002051E20934A1209577F647E0039
:100757001209103092051209A280F8209216120988
:10076700577F507E00120910120A027F887E1312EB
:10077700091080E7120A071209A27F2C7E011209CD
:10078700101209577F647E00120910051FE51F70BC
:1007970002051E20944A1209577F647E0012091031
:1007A7003092051209B180F82092161209577F502E
:1007B7007E00120910120A027F887E131209108028
:1007C700E7120A071209A27F2C7E011209101209EB
:1007D700577F647E00120910051FE51F7002051E72
:0507E700AE1EAF1F2251
:0C090300020E00000210000002120000B2
:0509C000007F05DFFED1
:0109C500220F
:1002FA00758911E4F58BF58DD2AFD2A01209C0C26F
:10030A00A030A1FDD28E20A1FDC28EAF8DEFFEAD31
:10031A008B7C00E42DFDEC3EFCE41202327B967AE3
:10032A0043790B783D12000EE4FBFAF9784012018A
:10033A001712026B8E088F09E4F58BF58DD2A21283
:10034A0009C0C2A230A3FDD28E20A3FDC28EAF8DFA
:10035A00EFFEAD8B7C00E42DFDEC3EFCE412023294
:10036A007B967A43790B783D12000EE4FBFAF97812
:10037A004012011712026B8E0A8F0BE4F58BF58D72
:10038A00D2A41209C0C2A430A5FDD28E20A5FDC2F6
:10039A008EAF8DEFFEAD8B7C00E42DFDEC3EFCE4D0
:1003AA001202327B967A43790B783D12000EE4FBF7
:1003BA00FAF9784012011712026B8E0C8F0DE4F5D0
:1003CA008BF58DC3E509944DE50894005059E5096C
:1003DA009445E5089400404FE50D9414E50C94000B
:1003EA005045E5114510703FC3E50D940AE50C949C
:1003FA000050341209577F967E00120910120966BE
:10040A007F087E021209101209577F3C7E001209EA
:10041A00101209397F647E001209107510007511D7
:10042A0001750E00750F01E50F6401450E7069C371
:10043A00E5099421E5089400500F1209577F507E70
:10044A0000120910E4F50EF50FD3E5139409E5122D
:10045A009400501C1209397FC87E00120910120933
:10046A00577F647E001209100513E5137002051206
:10047A00D3E5139409E51294005003020572120998
:10048A00577F967E001209101209A27F407E011240
:10049A000910E4F512F51322C3E509940FE508944F
:1004AA0000501E1209577F507E001209101209A22D
:1004BA007F6E7E001209101209577F507E001209C2
:1004CA0010C3E50B940FE50A940050111209577FE7
:1004DA00507E001209101209A27F6E807CAC0CAD0E
:1004EA000DE4120232E4FBFA790878411201B46091
:1004FA0020401E1209667F3C7E001209101209393B
:10050A007F787E001209101209577F507E00120967
:10051A0010AC0CAD0DE4120232E4FBFA7908784112
:10052A001201B45043E50D9414E50C9400401BE508
:10053A000D94F0E50C940050111209757F5D7E0050
:10054A001209101209397F31800F1209757F3C7E1A
:10055A00001209101209397F787E00120910120957
:09056A00577F507E001209102297
:10000E00EC4D6011E8497017ED33EC3304600DE4EC
:10001E00FCFFFEFD22E933E8330470F80202D7122A
:10002E0002A258046009E4CC24815006285009022B
:10003E0002E12840030202DEC0E0EB4A7044B980C0
:10004E0006D0E0FB0202CDEF4E701CBD8008EBFF28
:10005E00EAFEE9FD80EBE98DF0A4FEE5F00200F783
:10006E00E9CDF9EAFEEBFFEF89F0A4FCE5F0CE89CD
:10007E00F0A42EFFE435F0CD89F0A42DFEE435F08A
:10008E008067EF4E7005BD80D780C3EF8BF0A4ACB8
:10009E00F0EE8BF0A42CFCE435F0F8EF8AF0A42CF3
:1000AE00E5F038FCE433CB8DF0A42CFCE5F03BF806
:1000BE00EE8AF0A42CFCE5F038F8E433CF89F0A4F6
:1000CE002CFCE5F038CF3400CE89F0A42FFFE5F0FC
:1000DE003EFEE433C98DF0A42EFEE5F039CD8AF054
:1000EE00A42FFFE5F03EFEE43DFD33D0E0FB5007CC
:1000FE000BBB000F0202E1EC2CFCEF33FFEE33FEE4
:06010E00ED33FD0202B911
:100114000202E1EC5D046005E8590470030202D7B1
:100124001202A2580460F6EC4860F2EC7004FDFE82
:10013400FF22C860DB2481C85009C39860025006BE
:100144000202DE9850CAF582E9294B4A7005AB8257
:100154000202CD75F0007C1A7880C3EF9BEE9AED15
:1001640099400DC3EF9BFFEE9AFEED99FDE842F036
:10017400DC23ACF0D0E0FFD0E0FED0E0FDAB822089
:10018400E7101BEB60BAEC2CFCEF33FFEE33FEED13
:1001940033FD0202B9E803F830E705C0F075F0005A
:1001A400EF2FFFEE33FEED33FD40B830E7C280AAF7
:1001B40074F8CC6480CCC86480C8F58204604FC3F2
:1001C400EB9FF5F0EA9E42F0E99D42F0E89C45F091
:1001D400603C501DE5825FFFE582D313CB5BCBF41B
:1001E4002B5582FB50280ABA002409B90020088044
:1001F4001DE5825BFBE582D313CF5FCFF4C3132FDE
:100204005582FF50090EBE00050DBD00010CC3EB65
:100214009FF5F0EA9E42F0E99D42F0E89C45F060CB
:0902240007CC4820E701B3EC22ED
:10022D0075F020800E75F010800575F0087D007E4C
:10023D00007F003392D530D5031202ECEC33401021
:10024D00EF33FFEE33FEED33FDEC33FCD5F0ED2255
:0E025D00E5F0247EA2D513CC92E7CDCEFF2291
:10026B00EDD2E7CD33EC3392D524814006E4FFFE8B
:10027B00FDFC22FCE4CFCECDCC24E0501174FF80EA
:10028B00EDC3CC13CCCD13CDCE13CECF13CF047087
:07029B00F030D5DE0202EC99
:1002A200E9D2E7C933E833F892D5EDD2E7CD33ECA2
:0702B20033FC5002B2D5221B
:1002B900EC30E7100FBF000C0EBE00080DBD0004A6
:1002C9000BEB6014A2D5EB13FCED92E7FD2274FF52
:1002D900FCFDFEFF22E480F8A2D574FF13FC7D80AB
:0302E900E480EFBF
:030000000207EC08
:0C07EC00787FE4F6D8FD75811F02083309
:0E02EC00C3E49FFFE49EFEE49DFDE49CFC2223
:1007F800020878E493A3F8E493A34003F68001F297
:1008080008DFF48029E493A3F85407240CC8C33301
:10081800C4540F4420C8834004F456800146F6DFD0
:10082800E4800B01020408102040809008FBE47E5D
:10083800019360BCA3FF543F30E509541FFEE493C5
:10084800A360010ECF54C025E060A840B8E493A38C
:10085800FAE493A3F8E493A3C8C582C8CAC583CAB7
:10086800F0A3C8C582C8CAC583CADFE9DEE780BE6F
:01090F0000E7
:00000001FF
