:02008200AD07C8
:10008400E4FB74807E00A803088006CEA2E713CEAA
:1000940013D8F8FFEDF582EF558224FF92B4D2B65F
:0A00A400C2B60BBB08DCD2B5C2B532
:0100AE00222F
:0600AF007D827C00E4FFED
:1000B500AA07AF05120082AF027480A80708800264
:1000C500C313D8FCF4F5807F017E001200D775803C
:0200D500FF2208
:10000300C2B6C2B51200AF7D407C007F011200B5BD
:100013007D207C007F021200B57D107C007F0312DF
:1000230000B51200AF7D407C007F011200B57D203A
:100033007C007F021200B57D107C007F031200B5A7
:100043001200AF7D407C007F011200B57D207C0053
:100053007F021200B57D107C007F031200B51200F1
:10006300AF7D407C007F011200B57D207C007F02C4
:0F0073001200B57D107C007F031200B50200075C
:1000D700EF1FAC0670011E4C600A7D027CEFDCFE50
:0400E700DDFC80ECD0
:0100EB0022F2
:030000000200EC0F
:0C00EC00787FE4F6D8FD75810702000360
:00000001FF
